:020000020000FC
:0400000007C047C02E
:10000E006CC06FE56DBF62E06EBF6FEF66B9D998D9
:10001E0088E388BBD89AD89830D2D9988EE088BB1E
:10002E00D89AD8982AD206D2D99886E088BBD89A80
:10003E00D89823D2112717B96FEF6ABB67BBD9982F
:10004E0084E888BBD89AD898F4E0E4ECFAD1D99831
:10005E0085EC88BBD89AD898F4E0E0EDF2D1D99827
:10006E0089ED88BBD89AD898F4E0EAEDEAD101D0B0
:10007E0089C100E009BF62E065BF60E46BBF7894A0
:10008E0008950895D7D1D99880E888BBD89AD89882
:10009E00F5E0E0E2D6D1D99880EC88BBD89AD89812
:1000AE00F5E0E2E3CED1D99884E988BBD89AD89806
:1000BE00F5E0E8E4C6D1D99884ED88BBD89AD898F3
:1000CE00F5E0ECE5BED1E1D1E0D1DFD1DED1B2D1A8
:1000DE0060E0461669F040D01895981499F6D5D17F
:1000EE00D4D1D3D117B1169517B900270FBF09C1B7
:1000FE00A1CFF5E0EEE94E2EF5E0ECEA5E2EF5E04E
:10010E00E8EC6E2E10E817B904D00DD025D0B1DF73
:10011E0039C1E42DC895702C3196C895802C319636
:10012E00972C4E2E0895E52DC895A02C3196C89586
:10013E00B02C3196C895C02C319631965E2EE62D98
:10014E00C895D02C3196C895E02C3196C895F02CD8
:10015E00319631966E2E08956DD1D99880E888BB70
:10016E00D89AD898F4E0E4EE6CD1082D1AE0B0E0FD
:10017E00A0E66627D9988AE888BBD89AD898002F27
:10018E00112F8BD120E3220E2D9263950023B9F708
:10019E0063D1D99880EC88BBD89AD898F4E0E0EF78
:1001AE0050D1092D1AE0B0E0A0E66627D9988AEC66
:1001BE0088BBD89AD898002F112F6FD120E3220E2A
:1001CE002D9263950023B9F747D1D99884ED88BB5A
:1001DE00D89AD898F4E0EAEF34D121E0A21649F08B
:1001EE0022E0A21641F023E0A21639F024E0A21676
:1001FE0031F02BE206C02DE204C02AE202C02FE24B
:10020E0000C0D99887ED88BBD89AD898D99A28BBC0
:10021E00D89AD8980D2D1AE0B0E0A0E66627D998A6
:10022E0088ED88BBD89AD898002F112F36D120E3AD
:10023E00220E2D9263950023B9F70ED121E0B2164E
:10024E0049F022E0B21641F023E0B21639F024E074
:10025E00B21631F02BE206C02DE204C02AE202C033
:10026E002FE200C0D9988EED88BBD89AD898D99A2B
:10027E0028BBD89AD8980E2D1AE0B0E0A0E66627D3
:10028E00D9988FED88BBD89AD898002F112F05D109
:10029E0020E3220E2D9263950023B9F7DDD021E0E5
:1002AE00C21649F022E0C21641F023E0C21639F020
:1002BE0024E0C21631F02BE206C02DE204C02AE281
:1002CE0002C02FE200C0D99885EE88BBD89AD89884
:1002DE00D99A28BBD89AD8980F2D1AE0B0E0A0E68C
:1002EE006627D99886EE88BBD89AD898002F112FFA
:1002FE00D4D020E3220E2D9263950023B9F7ACD013
:10030E00089502CFD9988AEC88BBD89AD898F5E090
:10031E00ECE197D0092D1AE0B0E0A0E66627D99857
:10032E008AEC88BBD89AD898002F112FB6D020E32C
:10033E00220E2D9263950023B9F78ED0089598144E
:10034E0009F00895D99886E988BBD89AD898F5E02F
:10035E00ECE077D004D00895981499F239C002E0F9
:10036E0003BF02E008BF02E009BF0FEF07BB0FEFAC
:10037E0008BB7894089500E003BF00E008BF00E0DA
:10038E0009BF089566274427552764BB40EF44BB39
:10039E0045BB000043B3403F09F4F8CF5FE054BBC8
:1003AE0055BB000053B3452301D0ECCF02D06DD026
:1003BE000895483489F2413191F04132A9F0413427
:1003CE00C1F0413849F0483121F0483819F000C0E9
:1003DE0008958FCE2FD02ECE972C94DF089511E056
:1003EE009A2D3D2C0BD0089512E09B2D3E2C06D05D
:1003FE00089513E09C2D3F2C01D00895913039F0D3
:10040E00923039F0933039F0943061F00895930CB6
:10041E000EC093180CC0692D232D6202B001962ECA
:10042E00322E05C0092D132D38D0902E00C06ADF54
:10043E0086DF0895D99881E088BBD89AD8981DD0C8
:10044E000895C895002039F0602DD99A68BBD89AC6
:10045E00D8983196F6CF08952E91D99A28BBD89A6E
:10046E00D8986A95662309F0F7CF089526E031E310
:10047E003A95F1F72A95E1F7089524E332EF3A958C
:10048E00F1F72A95E1F70000089520ED3AEC3A9540
:10049E00F1F72A95E1F700000895221829E0001FD0
:1004AE002A9509F40895221C211A18F4210E889415
:1004BE00F6CF0894F4CF43414C43554C41544F5220
:1004CE003A005448452047414D4500003C205354C6
:1004DE00415254203E00474F414C202020203A20CC
:1004EE00000043555252454E54203A0028312920DF
:1004FE0020202028322920202020283329007E7E0B
:10050E007E20434F5252454354207E7E7E00202053
:10051E002000312F322F33203D204F504552415471
:10052E00494F4E005354415254203D204241434BBB
:10053E0020544F204C562E310000434C4541522042
:10054E003D2052455354415254204C564C00455870
:10055E00495420203D204D41494E204D454E5500D9
:10056E00594F5520574F4E205448452047414D4531
:10057E0021005052455353203C53544152543E2077
:10058E00544F0000504C415920414741494E000004
:10059E0000020008000C01070304004004050100DE
:1005AE00000001010000010103000102000001032F
:1005BE000400010300000102040001000000020318
:1005CE0000000102040004020000040404000204FE
:0605DE000000030303000E
:00000001FF
